{
  "contractName": "ProposalContract",
  "abi": [
    {
      "inputs": [],
      "name": "nextId",
      "outputs": [
        {
          "internalType": "uint256",
          "name": "",
          "type": "uint256"
        }
      ],
      "stateMutability": "view",
      "type": "function",
      "constant": true
    },
    {
      "inputs": [
        {
          "internalType": "uint256",
          "name": "",
          "type": "uint256"
        }
      ],
      "name": "proposals",
      "outputs": [
        {
          "internalType": "uint256",
          "name": "id",
          "type": "uint256"
        },
        {
          "internalType": "string",
          "name": "title",
          "type": "string"
        },
        {
          "internalType": "string",
          "name": "description",
          "type": "string"
        },
        {
          "internalType": "address",
          "name": "author",
          "type": "address"
        },
        {
          "internalType": "bool",
          "name": "approved",
          "type": "bool"
        }
      ],
      "stateMutability": "view",
      "type": "function",
      "constant": true
    },
    {
      "inputs": [
        {
          "internalType": "string",
          "name": "_title",
          "type": "string"
        },
        {
          "internalType": "string",
          "name": "_description",
          "type": "string"
        }
      ],
      "name": "createProposal",
      "outputs": [],
      "stateMutability": "nonpayable",
      "type": "function"
    },
    {
      "inputs": [
        {
          "internalType": "uint256",
          "name": "_id",
          "type": "uint256"
        }
      ],
      "name": "getProposal",
      "outputs": [
        {
          "components": [
            {
              "internalType": "uint256",
              "name": "id",
              "type": "uint256"
            },
            {
              "internalType": "string",
              "name": "title",
              "type": "string"
            },
            {
              "internalType": "string",
              "name": "description",
              "type": "string"
            },
            {
              "internalType": "address",
              "name": "author",
              "type": "address"
            },
            {
              "internalType": "bool",
              "name": "approved",
              "type": "bool"
            }
          ],
          "internalType": "struct ProposalContract.Proposal",
          "name": "",
          "type": "tuple"
        }
      ],
      "stateMutability": "view",
      "type": "function",
      "constant": true
    },
    {
      "inputs": [],
      "name": "getProposals",
      "outputs": [
        {
          "components": [
            {
              "internalType": "uint256",
              "name": "id",
              "type": "uint256"
            },
            {
              "internalType": "string",
              "name": "title",
              "type": "string"
            },
            {
              "internalType": "string",
              "name": "description",
              "type": "string"
            },
            {
              "internalType": "address",
              "name": "author",
              "type": "address"
            },
            {
              "internalType": "bool",
              "name": "approved",
              "type": "bool"
            }
          ],
          "internalType": "struct ProposalContract.Proposal[]",
          "name": "",
          "type": "tuple[]"
        }
      ],
      "stateMutability": "view",
      "type": "function",
      "constant": true
    },
    {
      "inputs": [
        {
          "internalType": "uint256",
          "name": "_id",
          "type": "uint256"
        }
      ],
      "name": "approveProposal",
      "outputs": [],
      "stateMutability": "nonpayable",
      "type": "function"
    }
  ],
  "bytecode": "0x608060405234801561001057600080fd5b5061110e806100206000396000f3fe608060405234801561001057600080fd5b50600436106100625760003560e01c8063013cf08b1461006757806361b8ce8c1461009b57806362564c48146100b957806365e481e2146100d757806398951b56146100f3578063c7f758a81461010f575b600080fd5b610081600480360381019061007c9190610abf565b61013f565b604051610092959493929190610df6565b60405180910390f35b6100a36102c2565b6040516100b09190610ddb565b60405180910390f35b6100c16102c8565b6040516100ce9190610d77565b60405180910390f35b6100f160048036038101906100ec9190610a53565b6104c6565b005b61010d60048036038101906101089190610abf565b6105fc565b005b61012960048036038101906101249190610abf565b6106a7565b6040516101369190610db9565b60405180910390f35b6000818154811061014f57600080fd5b906000526020600020906004020160009150905080600001549080600101805461017890610fa8565b80601f01602080910402602001604051908101604052809291908181526020018280546101a490610fa8565b80156101f15780601f106101c6576101008083540402835291602001916101f1565b820191906000526020600020905b8154815290600101906020018083116101d457829003601f168201915b50505050509080600201805461020690610fa8565b80601f016020809104026020016040519081016040528092919081815260200182805461023290610fa8565b801561027f5780601f106102545761010080835404028352916020019161027f565b820191906000526020600020905b81548152906001019060200180831161026257829003601f168201915b5050505050908060030160009054906101000a900473ffffffffffffffffffffffffffffffffffffffff16908060030160149054906101000a900460ff16905085565b60015481565b60606000805480602002602001604051908101604052809291908181526020016000905b828210156104bd57838290600052602060002090600402016040518060a00160405290816000820154815260200160018201805461032990610fa8565b80601f016020809104026020016040519081016040528092919081815260200182805461035590610fa8565b80156103a25780601f10610377576101008083540402835291602001916103a2565b820191906000526020600020905b81548152906001019060200180831161038557829003601f168201915b505050505081526020016002820180546103bb90610fa8565b80601f01602080910402602001604051908101604052809291908181526020018280546103e790610fa8565b80156104345780601f1061040957610100808354040283529160200191610434565b820191906000526020600020905b81548152906001019060200180831161041757829003601f168201915b505050505081526020016003820160009054906101000a900473ffffffffffffffffffffffffffffffffffffffff1673ffffffffffffffffffffffffffffffffffffffff1673ffffffffffffffffffffffffffffffffffffffff1681526020016003820160149054906101000a900460ff161515151581525050815260200190600101906102ec565b50505050905090565b60006040518060a0016040528060015481526020018481526020018381526020013373ffffffffffffffffffffffffffffffffffffffff1681526020016000151581525090806001815401808255809150506001900390600052602060002090600402016000909190919091506000820151816000015560208201518160010190805190602001906105599291906108ec565b5060408201518160020190805190602001906105769291906108ec565b5060608201518160030160006101000a81548173ffffffffffffffffffffffffffffffffffffffff021916908373ffffffffffffffffffffffffffffffffffffffff16021790555060808201518160030160146101000a81548160ff0219169083151502179055505050600160008154809291906105f390610fda565b91905055505050565b6001548110610640576040517f08c379a000000000000000000000000000000000000000000000000000000000815260040161063790610d99565b60405180910390fd5b60016000828154811061067c577f4e487b7100000000000000000000000000000000000000000000000000000000600052603260045260246000fd5b906000526020600020906004020160030160146101000a81548160ff02191690831515021790555050565b6106af610972565b60015482106106f3576040517f08c379a00000000000000000000000000000000000000000000000000000000081526004016106ea90610d99565b60405180910390fd5b6000828154811061072d577f4e487b7100000000000000000000000000000000000000000000000000000000600052603260045260246000fd5b90600052602060002090600402016040518060a00160405290816000820154815260200160018201805461076090610fa8565b80601f016020809104026020016040519081016040528092919081815260200182805461078c90610fa8565b80156107d95780601f106107ae576101008083540402835291602001916107d9565b820191906000526020600020905b8154815290600101906020018083116107bc57829003601f168201915b505050505081526020016002820180546107f290610fa8565b80601f016020809104026020016040519081016040528092919081815260200182805461081e90610fa8565b801561086b5780601f106108405761010080835404028352916020019161086b565b820191906000526020600020905b81548152906001019060200180831161084e57829003601f168201915b505050505081526020016003820160009054906101000a900473ffffffffffffffffffffffffffffffffffffffff1673ffffffffffffffffffffffffffffffffffffffff1673ffffffffffffffffffffffffffffffffffffffff1681526020016003820160149054906101000a900460ff1615151515815250509050919050565b8280546108f890610fa8565b90600052602060002090601f01602090048101928261091a5760008555610961565b82601f1061093357805160ff1916838001178555610961565b82800160010185558215610961579182015b82811115610960578251825591602001919060010190610945565b5b50905061096e91906109b9565b5090565b6040518060a00160405280600081526020016060815260200160608152602001600073ffffffffffffffffffffffffffffffffffffffff1681526020016000151581525090565b5b808211156109d25760008160009055506001016109ba565b5090565b60006109e96109e484610e88565b610e57565b905082815260208101848484011115610a0157600080fd5b610a0c848285610f66565b509392505050565b600082601f830112610a2557600080fd5b8135610a358482602086016109d6565b91505092915050565b600081359050610a4d816110c1565b92915050565b60008060408385031215610a6657600080fd5b600083013567ffffffffffffffff811115610a8057600080fd5b610a8c85828601610a14565b925050602083013567ffffffffffffffff811115610aa957600080fd5b610ab585828601610a14565b9150509250929050565b600060208284031215610ad157600080fd5b6000610adf84828501610a3e565b91505092915050565b6000610af48383610c5f565b905092915050565b610b0581610f1e565b82525050565b610b1481610f1e565b82525050565b6000610b2582610ec8565b610b2f8185610eeb565b935083602082028501610b4185610eb8565b8060005b85811015610b7d5784840389528151610b5e8582610ae8565b9450610b6983610ede565b925060208a01995050600181019050610b45565b50829750879550505050505092915050565b610b9881610f30565b82525050565b610ba781610f30565b82525050565b6000610bb882610ed3565b610bc28185610efc565b9350610bd2818560208601610f75565b610bdb816110b0565b840191505092915050565b6000610bf182610ed3565b610bfb8185610f0d565b9350610c0b818560208601610f75565b610c14816110b0565b840191505092915050565b6000610c2c601783610f0d565b91507f50726f706f73616c20646f6573206e6f742065786973740000000000000000006000830152602082019050919050565b600060a083016000830151610c776000860182610d59565b5060208301518482036020860152610c8f8282610bad565b91505060408301518482036040860152610ca98282610bad565b9150506060830151610cbe6060860182610afc565b506080830151610cd16080860182610b8f565b508091505092915050565b600060a083016000830151610cf46000860182610d59565b5060208301518482036020860152610d0c8282610bad565b91505060408301518482036040860152610d268282610bad565b9150506060830151610d3b6060860182610afc565b506080830151610d4e6080860182610b8f565b508091505092915050565b610d6281610f5c565b82525050565b610d7181610f5c565b82525050565b60006020820190508181036000830152610d918184610b1a565b905092915050565b60006020820190508181036000830152610db281610c1f565b9050919050565b60006020820190508181036000830152610dd38184610cdc565b905092915050565b6000602082019050610df06000830184610d68565b92915050565b600060a082019050610e0b6000830188610d68565b8181036020830152610e1d8187610be6565b90508181036040830152610e318186610be6565b9050610e406060830185610b0b565b610e4d6080830184610b9e565b9695505050505050565b6000604051905081810181811067ffffffffffffffff82111715610e7e57610e7d611081565b5b8060405250919050565b600067ffffffffffffffff821115610ea357610ea2611081565b5b601f19601f8301169050602081019050919050565b6000819050602082019050919050565b600081519050919050565b600081519050919050565b6000602082019050919050565b600082825260208201905092915050565b600082825260208201905092915050565b600082825260208201905092915050565b6000610f2982610f3c565b9050919050565b60008115159050919050565b600073ffffffffffffffffffffffffffffffffffffffff82169050919050565b6000819050919050565b82818337600083830152505050565b60005b83811015610f93578082015181840152602081019050610f78565b83811115610fa2576000848401525b50505050565b60006002820490506001821680610fc057607f821691505b60208210811415610fd457610fd3611052565b5b50919050565b6000610fe582610f5c565b91507fffffffffffffffffffffffffffffffffffffffffffffffffffffffffffffffff82141561101857611017611023565b5b600182019050919050565b7f4e487b7100000000000000000000000000000000000000000000000000000000600052601160045260246000fd5b7f4e487b7100000000000000000000000000000000000000000000000000000000600052602260045260246000fd5b7f4e487b7100000000000000000000000000000000000000000000000000000000600052604160045260246000fd5b6000601f19601f8301169050919050565b6110ca81610f5c565b81146110d557600080fd5b5056fea2646970667358221220f6a4e8692c84f769ce65a2236a088c5d0325fda2e8f311d4f0f23aae4444018464736f6c63430008000033",
  "immutableReferences": {},
  "source": "// SPDX-License-Identifier: MIT\r\npragma solidity ^0.8.0;\r\n\r\ncontract ProposalContract {\r\n    struct Proposal {\r\n        uint id;\r\n        string title;\r\n        string description;\r\n        address author;\r\n        bool approved;\r\n    }\r\n\r\n    Proposal[] public proposals;\r\n    uint public nextId;\r\n\r\n    function createProposal(string memory _title, string memory _description) public {\r\n        proposals.push(Proposal(nextId, _title, _description, msg.sender, false));\r\n        nextId++;\r\n    }\r\n\r\n    function getProposal(uint _id) public view returns (Proposal memory) {\r\n        require(_id < nextId, \"Proposal does not exist\");\r\n        return proposals[_id];\r\n    }\r\n\r\n    function getProposals() public view returns (Proposal[] memory) {\r\n        return proposals;\r\n    }\r\n\r\n    function approveProposal(uint _id) public {\r\n        require(_id < nextId, \"Proposal does not exist\");\r\n        proposals[_id].approved = true;\r\n    }\r\n}\r\n",
  "sourcePath": "C:\\Users\\ing\\Desktop\\Guine 2050\\guinea-futur\\contracts\\ProposalContract.sol",
  "compiler": {
    "name": "solc",
    "version": "0.8.0+commit.c7dfd78e.Emscripten.clang"
  },
  "schemaVersion": "3.4.16",
  "updatedAt": "2024-06-20T02:31:43.464Z",
  "networkType": "ethereum",
  "devdoc": {
    "kind": "dev",
    "methods": {},
    "version": 1
  },
  "userdoc": {
    "kind": "user",
    "methods": {},
    "version": 1
  }
}